{
  "_format": "hh-sol-artifact-1",
  "contractName": "Group",
  "sourceName": "contracts/Group.sol",
  "abi": [
    {
      "inputs": [
        {
          "internalType": "string",
          "name": "_name",
          "type": "string"
        },
        {
          "internalType": "uint256",
          "name": "_groupIndex",
          "type": "uint256"
        },
        {
          "internalType": "address",
          "name": "createdBy",
          "type": "address"
        }
      ],
      "stateMutability": "nonpayable",
      "type": "constructor"
    },
    {
      "anonymous": false,
      "inputs": [
        {
          "indexed": false,
          "internalType": "address",
          "name": "sender",
          "type": "address"
        },
        {
          "indexed": false,
          "internalType": "uint256",
          "name": "groupIndex",
          "type": "uint256"
        }
      ],
      "name": "GroupCreate",
      "type": "event"
    },
    {
      "anonymous": false,
      "inputs": [
        {
          "indexed": false,
          "internalType": "address",
          "name": "sender",
          "type": "address"
        },
        {
          "indexed": false,
          "internalType": "uint256",
          "name": "amount",
          "type": "uint256"
        }
      ],
      "name": "GroupDeposit",
      "type": "event"
    },
    {
      "anonymous": false,
      "inputs": [
        {
          "indexed": false,
          "internalType": "address",
          "name": "sender",
          "type": "address"
        },
        {
          "indexed": false,
          "internalType": "uint256",
          "name": "amount",
          "type": "uint256"
        }
      ],
      "name": "GroupMemberWithdrawal",
      "type": "event"
    },
    {
      "anonymous": false,
      "inputs": [
        {
          "indexed": false,
          "internalType": "uint256",
          "name": "voteId",
          "type": "uint256"
        }
      ],
      "name": "GroupVoteCompleted",
      "type": "event"
    },
    {
      "anonymous": false,
      "inputs": [
        {
          "indexed": false,
          "internalType": "address",
          "name": "sender",
          "type": "address"
        },
        {
          "indexed": false,
          "internalType": "uint256",
          "name": "voteId",
          "type": "uint256"
        }
      ],
      "name": "GroupVoteInitiate",
      "type": "event"
    },
    {
      "anonymous": false,
      "inputs": [
        {
          "indexed": false,
          "internalType": "uint8",
          "name": "version",
          "type": "uint8"
        }
      ],
      "name": "Initialized",
      "type": "event"
    },
    {
      "anonymous": false,
      "inputs": [
        {
          "indexed": false,
          "internalType": "address",
          "name": "account",
          "type": "address"
        }
      ],
      "name": "Paused",
      "type": "event"
    },
    {
      "anonymous": false,
      "inputs": [
        {
          "indexed": true,
          "internalType": "bytes32",
          "name": "role",
          "type": "bytes32"
        },
        {
          "indexed": true,
          "internalType": "bytes32",
          "name": "previousAdminRole",
          "type": "bytes32"
        },
        {
          "indexed": true,
          "internalType": "bytes32",
          "name": "newAdminRole",
          "type": "bytes32"
        }
      ],
      "name": "RoleAdminChanged",
      "type": "event"
    },
    {
      "anonymous": false,
      "inputs": [
        {
          "indexed": true,
          "internalType": "bytes32",
          "name": "role",
          "type": "bytes32"
        },
        {
          "indexed": true,
          "internalType": "address",
          "name": "account",
          "type": "address"
        },
        {
          "indexed": true,
          "internalType": "address",
          "name": "sender",
          "type": "address"
        }
      ],
      "name": "RoleGranted",
      "type": "event"
    },
    {
      "anonymous": false,
      "inputs": [
        {
          "indexed": true,
          "internalType": "bytes32",
          "name": "role",
          "type": "bytes32"
        },
        {
          "indexed": true,
          "internalType": "address",
          "name": "account",
          "type": "address"
        },
        {
          "indexed": true,
          "internalType": "address",
          "name": "sender",
          "type": "address"
        }
      ],
      "name": "RoleRevoked",
      "type": "event"
    },
    {
      "anonymous": false,
      "inputs": [
        {
          "indexed": false,
          "internalType": "address",
          "name": "account",
          "type": "address"
        }
      ],
      "name": "Unpaused",
      "type": "event"
    },
    {
      "inputs": [],
      "name": "ADMIN_ROLE",
      "outputs": [
        {
          "internalType": "bytes32",
          "name": "",
          "type": "bytes32"
        }
      ],
      "stateMutability": "view",
      "type": "function"
    },
    {
      "inputs": [],
      "name": "DEFAULT_ADMIN_ROLE",
      "outputs": [
        {
          "internalType": "bytes32",
          "name": "",
          "type": "bytes32"
        }
      ],
      "stateMutability": "view",
      "type": "function"
    },
    {
      "inputs": [],
      "name": "OWNER_ROLE",
      "outputs": [
        {
          "internalType": "bytes32",
          "name": "",
          "type": "bytes32"
        }
      ],
      "stateMutability": "view",
      "type": "function"
    },
    {
      "inputs": [
        {
          "internalType": "address",
          "name": "",
          "type": "address"
        }
      ],
      "name": "allocation",
      "outputs": [
        {
          "internalType": "uint256",
          "name": "",
          "type": "uint256"
        }
      ],
      "stateMutability": "view",
      "type": "function"
    },
    {
      "inputs": [
        {
          "internalType": "uint256",
          "name": "voteIndex",
          "type": "uint256"
        },
        {
          "internalType": "bool",
          "name": "decision",
          "type": "bool"
        }
      ],
      "name": "castVote",
      "outputs": [],
      "stateMutability": "nonpayable",
      "type": "function"
    },
    {
      "inputs": [
        {
          "internalType": "enum Structs.VotingType",
          "name": "voteType",
          "type": "uint8"
        }
      ],
      "name": "changeVoting",
      "outputs": [],
      "stateMutability": "nonpayable",
      "type": "function"
    },
    {
      "inputs": [
        {
          "internalType": "enum Structs.ActionType",
          "name": "requestType",
          "type": "uint8"
        },
        {
          "internalType": "address[]",
          "name": "_memberList",
          "type": "address[]"
        },
        {
          "internalType": "uint256[]",
          "name": "_allocation",
          "type": "uint256[]"
        }
      ],
      "name": "createProposal",
      "outputs": [],
      "stateMutability": "nonpayable",
      "type": "function"
    },
    {
      "inputs": [
        {
          "internalType": "address",
          "name": "memberId",
          "type": "address"
        }
      ],
      "name": "getAllocation",
      "outputs": [
        {
          "internalType": "uint256",
          "name": "",
          "type": "uint256"
        }
      ],
      "stateMutability": "view",
      "type": "function"
    },
    {
      "inputs": [],
      "name": "getBalance",
      "outputs": [
        {
          "internalType": "uint256",
          "name": "",
          "type": "uint256"
        }
      ],
      "stateMutability": "view",
      "type": "function"
    },
    {
      "inputs": [],
      "name": "getGroupDetails",
      "outputs": [
        {
          "components": [
            {
              "internalType": "string",
              "name": "name",
              "type": "string"
            },
            {
              "internalType": "uint256",
              "name": "groupId",
              "type": "uint256"
            },
            {
              "internalType": "enum Structs.VotingType",
              "name": "votingType",
              "type": "uint8"
            },
            {
              "internalType": "address[]",
              "name": "memberList",
              "type": "address[]"
            }
          ],
          "internalType": "struct Group.GroupDetail",
          "name": "",
          "type": "tuple"
        }
      ],
      "stateMutability": "view",
      "type": "function"
    },
    {
      "inputs": [
        {
          "internalType": "bytes32",
          "name": "role",
          "type": "bytes32"
        }
      ],
      "name": "getRoleAdmin",
      "outputs": [
        {
          "internalType": "bytes32",
          "name": "",
          "type": "bytes32"
        }
      ],
      "stateMutability": "view",
      "type": "function"
    },
    {
      "inputs": [],
      "name": "getVoteIndex",
      "outputs": [
        {
          "internalType": "uint256",
          "name": "",
          "type": "uint256"
        }
      ],
      "stateMutability": "view",
      "type": "function"
    },
    {
      "inputs": [
        {
          "internalType": "uint256",
          "name": "_voteIndex",
          "type": "uint256"
        },
        {
          "internalType": "address",
          "name": "memberId",
          "type": "address"
        }
      ],
      "name": "getVoteMemberAllocation",
      "outputs": [
        {
          "internalType": "uint256",
          "name": "",
          "type": "uint256"
        }
      ],
      "stateMutability": "view",
      "type": "function"
    },
    {
      "inputs": [
        {
          "internalType": "uint256",
          "name": "_voteIndex",
          "type": "uint256"
        }
      ],
      "name": "getVoteMemberList",
      "outputs": [
        {
          "internalType": "address[]",
          "name": "",
          "type": "address[]"
        }
      ],
      "stateMutability": "view",
      "type": "function"
    },
    {
      "inputs": [
        {
          "internalType": "uint256",
          "name": "_voteIndex",
          "type": "uint256"
        },
        {
          "internalType": "address",
          "name": "memberId",
          "type": "address"
        }
      ],
      "name": "getVoteMemberOutcome",
      "outputs": [
        {
          "internalType": "enum Structs.VoteOutcome",
          "name": "",
          "type": "uint8"
        }
      ],
      "stateMutability": "view",
      "type": "function"
    },
    {
      "inputs": [
        {
          "internalType": "uint256",
          "name": "_voteIndex",
          "type": "uint256"
        }
      ],
      "name": "getVotingMemberList",
      "outputs": [
        {
          "internalType": "address[]",
          "name": "",
          "type": "address[]"
        }
      ],
      "stateMutability": "view",
      "type": "function"
    },
    {
      "inputs": [
        {
          "internalType": "bytes32",
          "name": "role",
          "type": "bytes32"
        },
        {
          "internalType": "address",
          "name": "account",
          "type": "address"
        }
      ],
      "name": "grantRole",
      "outputs": [],
      "stateMutability": "nonpayable",
      "type": "function"
    },
    {
      "inputs": [],
      "name": "groupIndex",
      "outputs": [
        {
          "internalType": "uint256",
          "name": "",
          "type": "uint256"
        }
      ],
      "stateMutability": "view",
      "type": "function"
    },
    {
      "inputs": [
        {
          "internalType": "bytes32",
          "name": "role",
          "type": "bytes32"
        },
        {
          "internalType": "address",
          "name": "account",
          "type": "address"
        }
      ],
      "name": "hasRole",
      "outputs": [
        {
          "internalType": "bool",
          "name": "",
          "type": "bool"
        }
      ],
      "stateMutability": "view",
      "type": "function"
    },
    {
      "inputs": [
        {
          "internalType": "address",
          "name": "createdBy",
          "type": "address"
        }
      ],
      "name": "initialize",
      "outputs": [],
      "stateMutability": "nonpayable",
      "type": "function"
    },
    {
      "inputs": [
        {
          "internalType": "address",
          "name": "to",
          "type": "address"
        }
      ],
      "name": "isMember",
      "outputs": [
        {
          "internalType": "bool",
          "name": "",
          "type": "bool"
        }
      ],
      "stateMutability": "view",
      "type": "function"
    },
    {
      "inputs": [],
      "name": "name",
      "outputs": [
        {
          "internalType": "string",
          "name": "",
          "type": "string"
        }
      ],
      "stateMutability": "view",
      "type": "function"
    },
    {
      "inputs": [],
      "name": "pause",
      "outputs": [],
      "stateMutability": "nonpayable",
      "type": "function"
    },
    {
      "inputs": [],
      "name": "paused",
      "outputs": [
        {
          "internalType": "bool",
          "name": "",
          "type": "bool"
        }
      ],
      "stateMutability": "view",
      "type": "function"
    },
    {
      "inputs": [
        {
          "internalType": "bytes32",
          "name": "role",
          "type": "bytes32"
        },
        {
          "internalType": "address",
          "name": "account",
          "type": "address"
        }
      ],
      "name": "renounceRole",
      "outputs": [],
      "stateMutability": "nonpayable",
      "type": "function"
    },
    {
      "inputs": [
        {
          "internalType": "bytes32",
          "name": "role",
          "type": "bytes32"
        },
        {
          "internalType": "address",
          "name": "account",
          "type": "address"
        }
      ],
      "name": "revokeRole",
      "outputs": [],
      "stateMutability": "nonpayable",
      "type": "function"
    },
    {
      "inputs": [
        {
          "internalType": "bytes4",
          "name": "interfaceId",
          "type": "bytes4"
        }
      ],
      "name": "supportsInterface",
      "outputs": [
        {
          "internalType": "bool",
          "name": "",
          "type": "bool"
        }
      ],
      "stateMutability": "view",
      "type": "function"
    },
    {
      "inputs": [
        {
          "internalType": "address",
          "name": "to",
          "type": "address"
        }
      ],
      "name": "transferOwnership",
      "outputs": [],
      "stateMutability": "nonpayable",
      "type": "function"
    },
    {
      "inputs": [],
      "name": "unpause",
      "outputs": [],
      "stateMutability": "nonpayable",
      "type": "function"
    },
    {
      "inputs": [
        {
          "internalType": "string",
          "name": "_name",
          "type": "string"
        }
      ],
      "name": "updateName",
      "outputs": [],
      "stateMutability": "nonpayable",
      "type": "function"
    },
    {
      "inputs": [
        {
          "internalType": "uint256",
          "name": "",
          "type": "uint256"
        }
      ],
      "name": "voteList",
      "outputs": [
        {
          "internalType": "uint256",
          "name": "voteIndex",
          "type": "uint256"
        },
        {
          "internalType": "enum Structs.ActionType",
          "name": "requestType",
          "type": "uint8"
        },
        {
          "internalType": "enum Structs.VotingType",
          "name": "votingType",
          "type": "uint8"
        },
        {
          "internalType": "enum Structs.VoteOutcome",
          "name": "outcome",
          "type": "uint8"
        }
      ],
      "stateMutability": "view",
      "type": "function"
    },
    {
      "inputs": [],
      "name": "votingIndex",
      "outputs": [
        {
          "internalType": "uint256",
          "name": "_value",
          "type": "uint256"
        }
      ],
      "stateMutability": "view",
      "type": "function"
    },
    {
      "inputs": [],
      "name": "votingType",
      "outputs": [
        {
          "internalType": "enum Structs.VotingType",
          "name": "",
          "type": "uint8"
        }
      ],
      "stateMutability": "view",
      "type": "function"
    },
    {
      "inputs": [],
      "name": "withdrawBalance",
      "outputs": [],
      "stateMutability": "nonpayable",
      "type": "function"
    }
  ],
  "bytecode": "0x6080604052620f424060cd553480156200001857600080fd5b5060405162002f6a38038062002f6a8339810160408190526200003b916200057d565b600054610100900460ff16158080156200005c5750600054600160ff909116105b806200008c575062000079306200031860201b620016df1760201c565b1580156200008c575060005460ff166001145b620000f55760405162461bcd60e51b815260206004820152602e60248201527f496e697469616c697a61626c653a20636f6e747261637420697320616c72656160448201526d191e481a5b9a5d1a585b1a5e995960921b60648201526084015b60405180910390fd5b6000805460ff19166001179055801562000119576000805461ff0019166101001790555b6200012362000327565b6200012d6200035d565b8351620001429060c990602087019062000462565b5060ca80546001600160a01b0319166001600160a01b03841690811790915560ce805460ff60a01b1916905560cb8490556040805160208101909152908152620001919060d0906001620004f1565b5060cc8054336001600160a01b0319918216811790925560ce8054909116909117905560cd5460ca546001600160a01b03908116600090815260d2602052604090209190915582166200021c5760405162461bcd60e51b815260206004820152601260248201527118dc99585d1959109e481c995c5d5a5c995960721b6044820152606401620000ec565b6200022960008362000387565b620002557fa49807205ce4d355092ef5a8a18f56e8913cf4a201fbe287825b095693c217758362000387565b620002817fb19546dff01e856fb3f010c267a7b1c60363cf8a4664e21cc89c26224620214e8362000387565b60cb54604080516001600160a01b038516815260208101929092527f35778aff1c2bbf31b0668f8cb6ae357cecc1dbac97ea193bd7041cbf85634d35910160405180910390a180156200030e576000805461ff0019169055604051600181527f7f26b83ff96e1f2b6a682f133852f6798a09c465da95921460cefb38474024989060200160405180910390a15b5050505062000716565b6001600160a01b03163b151590565b600054610100900460ff16620003515760405162461bcd60e51b8152600401620000ec9062000678565b6200035b6200042c565b565b600054610100900460ff166200035b5760405162461bcd60e51b8152600401620000ec9062000678565b60008281526097602090815260408083206001600160a01b038516845290915290205460ff16620004285760008281526097602090815260408083206001600160a01b03851684529091529020805460ff19166001179055620003e73390565b6001600160a01b0316816001600160a01b0316837f2f8788117e7eff1d82e926ec794901d17c78024a50270940304540a733656f0d60405160405180910390a45b5050565b600054610100900460ff16620004565760405162461bcd60e51b8152600401620000ec9062000678565b6033805460ff19169055565b8280546200047090620006c3565b90600052602060002090601f016020900481019282620004945760008555620004df565b82601f10620004af57805160ff1916838001178555620004df565b82800160010185558215620004df579182015b82811115620004df578251825591602001919060010190620004c2565b50620004ed92915062000549565b5090565b828054828255906000526020600020908101928215620004df579160200282015b82811115620004df57825182546001600160a01b0319166001600160a01b0390911617825560209092019160019091019062000512565b5b80821115620004ed57600081556001016200054a565b80516001600160a01b03811681146200057857600080fd5b919050565b6000806000606084860312156200059357600080fd5b83516001600160401b0380821115620005ab57600080fd5b818601915086601f830112620005c057600080fd5b815181811115620005d557620005d562000700565b604051601f8201601f19908116603f0116810190838211818310171562000600576200060062000700565b816040528281526020935089848487010111156200061d57600080fd5b600091505b8282101562000641578482018401518183018501529083019062000622565b82821115620006535760008484830101525b80975050505080860151935050506200066f6040850162000560565b90509250925092565b6020808252602b908201527f496e697469616c697a61626c653a20636f6e7472616374206973206e6f74206960408201526a6e697469616c697a696e6760a81b606082015260800190565b600181811c90821680620006d857607f821691505b60208210811415620006fa57634e487b7160e01b600052602260045260246000fd5b50919050565b634e487b7160e01b600052604160045260246000fd5b61284480620007266000396000f3fe608060405234801561001057600080fd5b50600436106101965760003560e01c806301ffc9a71461019b57806306fdde03146101c35780630e022923146101d857806312065fe01461020f57806315373e3d1461022457806319b0e2f714610239578063248a9ca3146102415780632b873997146102545780632f2ff15d1461029e57806336568abe146102b15780633c96fc92146102c45780633f4ba83a146102fe5780635c975abb146103065780635dd523fa146103115780635fd8c7101461031b57806375b238fc146103235780637604007d1461033857806377f5dd791461035857806379941b391461036d5780638456cb591461038057806384da92a71461038857806391d148541461039b57806399e1fd48146103ae578063a217fddf146103c1578063a230c524146103c9578063a3989703146103dc578063a6d1aef91461042a578063a9aa6a9b1461043d578063b81b863014610451578063c4d66de814610471578063d547741f14610484578063e58378bb14610497578063f2fde38b146104ac578063f89f579f146104bf575b600080fd5b6101ae6101a93660046121f1565b6104c8565b60405190151581526020015b60405180910390f35b6101cb6104ff565b6040516101ba9190612474565b6102016101e6366004612191565b6001600160a01b0316600090815260d2602052604090205490565b6040519081526020016101ba565b33600090815260d16020526040902054610201565b61023761023236600461232b565b61058d565b005b610201610974565b61020161024f3660046121ac565b610984565b6102916102623660046121c5565b600082815260d3602090815260408083206001600160a01b038516845260060190915290205460ff1692915050565b6040516101ba9190612461565b6102376102ac3660046121c5565b610999565b6102376102bf3660046121c5565b6109ba565b6102016102d23660046121c5565b600082815260d3602090815260408083206001600160a01b038516845260020190915290205492915050565b610237610a38565b60335460ff166101ae565b60cf546102019081565b610237610a5b565b6102016000805160206127af83398151915281565b61034b6103463660046121ac565b610b11565b6040516101ba9190612414565b610360610b80565b6040516101ba91906124d2565b61034b61037b3660046121ac565b610cc1565b610237610d2e565b6102376103963660046122ba565b610d4e565b6101ae6103a93660046121c5565b610dc5565b6102376103bc36600461221b565b610df0565b610201600081565b6101ae6103d7366004612191565b61125f565b61041a6103ea3660046121ac565b60d3602052600090815260409020805460018201546003830154600790930154919260ff91821692908216911684565b6040516101ba94939291906125c0565b61023761043836600461229d565b6112ae565b60ce5461029190600160a01b900460ff1681565b61020161045f366004612191565b60d26020526000908152604090205481565b61023761047f366004612191565b6114d0565b6102376104923660046121c5565b611624565b61020160008051602061278f83398151915281565b6102376104ba366004612191565b611640565b61020160cb5481565b60006001600160e01b03198216637965db0b60e01b14806104f957506301ffc9a760e01b6001600160e01b03198316145b92915050565b60c9805461050c9061268b565b80601f01602080910402602001604051908101604052809291908181526020018280546105389061268b565b80156105855780601f1061055a57610100808354040283529160200191610585565b820191906000526020600020905b81548152906001019060200180831161056857829003601f168201915b505050505081565b6105963361125f565b6105e75760405162461bcd60e51b815260206004820152601d60248201527f4d7573742062652061206d656d62657220746f206361737420766f746500000060448201526064015b60405180910390fd5b60cf5482106106325760405162461bcd60e51b8152602060048201526017602482015276141c9bdc1bdcd85b08191bd95cc81b9bdd08195e1a5cdd604a1b60448201526064016105de565b600082815260d3602052604081209033600090815260068301602052604090205460ff16600281111561066757610667612721565b146106b35760405162461bcd60e51b815260206004820152601c60248201527b53656e6465722068617320616c7265616479206361737420766f746560201b60448201526064016105de565b6000600782015460ff1660028111156106ce576106ce612721565b146107195760405162461bcd60e51b815260206004820152601b60248201527a141c9bdc1bdcd85b081a185cc8185b1c9958591e4818db1bdcd959602a1b60448201526064016105de565b8115610740573360009081526006820160205260409020805460ff1916600117905561075d565b3360009081526006820160205260409020805460ff191660021790555b6000610768826116ee565b9050600181600281111561077e5761077e612721565b14156109215760078201805460ff1916600117905560005b600483015481101561084c578260020160008460040183815481106107bd576107bd612737565b9060005260206000200160009054906101000a90046001600160a01b03166001600160a01b03166001600160a01b031681526020019081526020016000205460d2600085600401848154811061081557610815612737565b60009182526020808320909101546001600160a01b0316835282019290925260400190205580610844816126c6565b915050610796565b5060048201805461085f9160d091611fca565b50600382015460ce805460ff9092169160ff60a01b1916600160a01b83600281111561088d5761088d612721565b021790555060ce5460cb546040516327b6bbb560e01b81526001600160a01b03909216916327b6bbb5916108c69160d090600401612564565b600060405180830381600087803b1580156108e057600080fd5b505af11580156108f4573d6000803e3d6000fd5b505083546040519081526000805160206127cf8339815191529250602001905060405180910390a161096e565b600281600281111561093557610935612721565b141561096e5760078201805460ff1916600217905581546040519081526000805160206127cf8339815191529060200160405180910390a15b50505050565b600061097f60cf5490565b905090565b60009081526097602052604090206001015490565b6109a282610984565b6109ab81611b24565b6109b58383611b2e565b505050565b6001600160a01b0381163314610a2a5760405162461bcd60e51b815260206004820152602f60248201527f416363657373436f6e74726f6c3a2063616e206f6e6c792072656e6f756e636560448201526e103937b632b9903337b91039b2b63360891b60648201526084016105de565b610a348282611bb4565b5050565b60008051602061278f833981519152610a5081611b24565b610a58611c1b565b50565b33600081815260d1602052604090205480610acc5760405162461bcd60e51b815260206004820152602b60248201527f43757272656e74206d656d6265722062616c616e63652072657175697265642060448201526a746f20776974686472617760a81b60648201526084016105de565b33600090815260d16020526040808220829055516001600160a01b0384169183156108fc02918491818181858888f193505050501580156109b5573d6000803e3d6000fd5b600081815260d36020908152604091829020600501805483518184028101840190945280845260609392830182828015610b7457602002820191906000526020600020905b81546001600160a01b03168152600190910190602001808311610b56575b50505050509050919050565b610b8861201a565b610b9061201a565b60cb54602082015260c98054610ba59061268b565b80601f0160208091040260200160405190810160405280929190818152602001828054610bd19061268b565b8015610c1e5780601f10610bf357610100808354040283529160200191610c1e565b820191906000526020600020905b815481529060010190602001808311610c0157829003601f168201915b505050918352505060ce546040820190600160a01b900460ff166002811115610c4957610c49612721565b90816002811115610c5c57610c5c612721565b90525060d0805460408051602080840282018101909252828152929190830182828015610cb257602002820191906000526020600020905b81546001600160a01b03168152600190910190602001808311610c94575b50505050506060820152919050565b600081815260d36020908152604091829020600401805483518184028101840190945280845260609392830182828015610b74576020028201919060005260206000209081546001600160a01b03168152600190910190602001808311610b565750505050509050919050565b60008051602061278f833981519152610d4681611b24565b610a58611c6d565b60ca546001600160a01b03163314610db95760405162461bcd60e51b815260206004820152602860248201527f4f6e6c79207468652067726f7570206f776e65722063616e206368616e676520604482015267746865206e616d6560c01b60648201526084016105de565b6109b560c98383612053565b60009182526097602090815260408084206001600160a01b0393909316845291905290205460ff1690565b610df93361125f565b610e565760405162461bcd60e51b815260206004820152602860248201527f50726f706f73616c732063616e206f6e6c792062652063726561746564206279604482015267206d656d6265727360c01b60648201526084016105de565b828114610eb65760405162461bcd60e51b815260206004820152602860248201527f4d656d626572732073686f756c6420616c69676e20776974682074686520616c6044820152673637b1b0ba34b7b760c11b60648201526084016105de565b600060d36000610ec560cf5490565b81526020019081526020016000209050610ede60cf5490565b8155610eee60cf80546001019055565b60018082018054889260ff1990911690836002811115610f1057610f10612721565b0217905550610f236004820186866120c7565b5060ce54600382018054600160a01b90920460ff169160ff19166001836002811115610f5157610f51612721565b021790555060d08054610f68916005840191611fca565b5080546040516000916000805160206127ef83398151915291610f8c9133916123fb565b60405180910390a160005b858110156110d257848482818110610fb157610fb1612737565b90506020020135836002016000898985818110610fd057610fd0612737565b9050602002016020810190610fe59190612191565b6001600160a01b0316815260208101919091526040016000205584848281811061101157611011612737565b905060200201358261102391906125fd565b9150600060ce54600160a01b900460ff16600281111561104557611045612721565b14801561105c575060ca546001600160a01b031633145b156110c05784848281811061107357611073612737565b9050602002013560d2600089898581811061109057611090612737565b90506020020160208101906110a59190612191565b6001600160a01b031681526020810191909152604001600020555b806110ca816126c6565b915050610f97565b5060cd5481146111225760405162461bcd60e51b815260206004820152601b60248201527a416c6c6f636174696f6e206d7573742061646420746f203130302560281b60448201526064016105de565b600060ce54600160a01b900460ff16600281111561114257611142612721565b148015611159575060ca546001600160a01b031633145b1561125657600782018054600160ff19918216811790925533600090815260068501602052604090208054909116909117905561119860d087876120c7565b50600382015460ce805460ff9092169160ff60a01b1916600160a01b8360028111156111c6576111c6612721565b021790555060ce5460cb546040516327b6bbb560e01b81526001600160a01b03909216916327b6bbb5916111ff9160d090600401612564565b600060405180830381600087803b15801561121957600080fd5b505af115801561122d573d6000803e3d6000fd5b505083546040519081526000805160206127cf8339815191529250602001905060405180910390a15b50505050505050565b60ca546000906001600160a01b038381169116141561128057506001919050565b6001600160a01b038216600090815260d26020526040902054156112a657506001919050565b506000919050565b60ca546001600160a01b0316331461131a5760405162461bcd60e51b815260206004820152602960248201527f4f6e6c7920746865206f776e65722063616e206368616e67652074686520766f60448201526874696e67207479706560b81b60648201526084016105de565b600060ce54600160a01b900460ff16600281111561133a5761133a612721565b141561136d5760ce805482919060ff60a01b1916600160a01b83600281111561136557611365612721565b021790555050565b600060d3600061137c60cf5490565b8152602001908152602001600020905061139560cf5490565b81556113a560cf80546001019055565b60018181018054600260ff1991821681179092556003840180548694919392169184908111156113d7576113d7612721565b021790555060d080546113ee916004840191611fca565b5060005b60d0548110156114a25760d2600060d0838154811061141357611413612737565b9060005260206000200160009054906101000a90046001600160a01b03166001600160a01b03166001600160a01b031681526020019081526020016000205482600201600060d0848154811061146b5761146b612737565b60009182526020808320909101546001600160a01b031683528201929092526040019020558061149a816126c6565b9150506113f2565b5080546040516000805160206127ef833981519152916114c4913391906123fb565b60405180910390a15050565b600054610100900460ff16158080156114f05750600054600160ff909116105b8061151157506114ff306116df565b158015611511575060005460ff166001145b6115745760405162461bcd60e51b815260206004820152602e60248201527f496e697469616c697a61626c653a20636f6e747261637420697320616c72656160448201526d191e481a5b9a5d1a585b1a5e995960921b60648201526084016105de565b6000805460ff191660011790558015611597576000805461ff0019166101001790555b61159f611caa565b6115a7611cdb565b6115b2600083611b2e565b6115ca6000805160206127af83398151915283611b2e565b6115e260008051602061278f83398151915283611b2e565b8015610a34576000805461ff0019169055604051600181527f7f26b83ff96e1f2b6a682f133852f6798a09c465da95921460cefb3847402498906020016114c4565b61162d82610984565b61163681611b24565b6109b58383611bb4565b6000805160206127af83398151915261165881611b24565b6001600160a01b0382166116a45760405162461bcd60e51b81526020600482015260136024820152721d1bc81859191c995cdcc81c995c5d5a5c9959606a1b60448201526064016105de565b6116bc60008051602061278f83398151915283611b2e565b5060ca80546001600160a01b0319166001600160a01b0392909216919091179055565b6001600160a01b03163b151590565b60008060ce54600160a01b900460ff16600281111561170f5761170f612721565b148015611726575060ca546001600160a01b031633145b80156117575750600133600090815260068401602052604090205460ff16600281111561175557611755612721565b145b1561176457506001919050565b600060ce54600160a01b900460ff16600281111561178457611784612721565b14801561179b575060ca546001600160a01b031633145b80156117cc5750600233600090815260068401602052604090205460ff1660028111156117ca576117ca612721565b145b156117d957506002919050565b600260ce54600160a01b900460ff1660028111156117f9576117f9612721565b14806118225750600160ce54600160a01b900460ff16600281111561182057611820612721565b145b156112a657600080600080600160d08054905011611841576001611882565b60d054600590611853906002906126e1565b1015611860576000611863565b60015b60ff16600260d0805490506118789190612615565b61188291906125fd565b905060005b60d05481101561198957600187600601600060d084815481106118ac576118ac612737565b60009182526020808320909101546001600160a01b0316835282019290925260400190205460ff1660028111156118e5576118e5612721565b14156118fd57846118f5816126c6565b955050611977565b600287600601600060d0848154811061191857611918612737565b60009182526020808320909101546001600160a01b0316835282019290925260400190205460ff16600281111561195157611951612721565b14156119695783611961816126c6565b945050611977565b82611973816126c6565b9350505b80611981816126c6565b915050611887565b50600260ce54600160a01b900460ff1660028111156119aa576119aa612721565b1480156119c1575060d0546119bf84866125fd565b105b156119d25750600095945050505050565b600260ce54600160a01b900460ff1660028111156119f2576119f2612721565b148015611a00575060d05484145b15611a115750600195945050505050565b600260ce54600160a01b900460ff166002811115611a3157611a31612721565b148015611a3e5750600083115b15611a4f5750600295945050505050565b600160ce54600160a01b900460ff166002811115611a6f57611a6f612721565b148015611a7b57508084105b8015611a8657508083105b15611a975750600095945050505050565b600160ce54600160a01b900460ff166002811115611ab757611ab7612721565b148015611ac45750808410155b15611ad55750600195945050505050565b600160ce54600160a01b900460ff166002811115611af557611af5612721565b148015611b025750808310155b15611b135750600295945050505050565b50600095945050505050565b919050565b610a588133611d02565b611b388282610dc5565b610a345760008281526097602090815260408083206001600160a01b03851684529091529020805460ff19166001179055611b703390565b6001600160a01b0316816001600160a01b0316837f2f8788117e7eff1d82e926ec794901d17c78024a50270940304540a733656f0d60405160405180910390a45050565b611bbe8282610dc5565b15610a345760008281526097602090815260408083206001600160a01b0385168085529252808320805460ff1916905551339285917ff6391f5c32d9c69d2a47ea670b442974b53935d1edc7fd64eb21e047a839171b9190a45050565b611c23611d66565b6033805460ff191690557f5db9ee0a495bf2e6ff9c91a7834c1ba4fdd244a5e8aa4e537bd38aeae4b073aa335b6040516001600160a01b03909116815260200160405180910390a1565b611c75611daf565b6033805460ff191660011790557f62e78cea01bee320cd4e420270b5ea74000d11b0c9f74754ebdbfc544b05a258611c503390565b600054610100900460ff16611cd15760405162461bcd60e51b81526004016105de90612487565b611cd9611df5565b565b600054610100900460ff16611cd95760405162461bcd60e51b81526004016105de90612487565b611d0c8282610dc5565b610a3457611d24816001600160a01b03166014611e28565b611d2f836020611e28565b604051602001611d4092919061238c565b60408051601f198184030181529082905262461bcd60e51b82526105de91600401612474565b60335460ff16611cd95760405162461bcd60e51b815260206004820152601460248201527314185d5cd8589b194e881b9bdd081c185d5cd95960621b60448201526064016105de565b60335460ff1615611cd95760405162461bcd60e51b815260206004820152601060248201526f14185d5cd8589b194e881c185d5cd95960821b60448201526064016105de565b600054610100900460ff16611e1c5760405162461bcd60e51b81526004016105de90612487565b6033805460ff19169055565b60606000611e37836002612629565b611e429060026125fd565b6001600160401b03811115611e5957611e5961274d565b6040519080825280601f01601f191660200182016040528015611e83576020820181803683370190505b509050600360fc1b81600081518110611e9e57611e9e612737565b60200101906001600160f81b031916908160001a905350600f60fb1b81600181518110611ecd57611ecd612737565b60200101906001600160f81b031916908160001a9053506000611ef1846002612629565b611efc9060016125fd565b90505b6001811115611f74576f181899199a1a9b1b9c1cb0b131b232b360811b85600f1660108110611f3057611f30612737565b1a60f81b828281518110611f4657611f46612737565b60200101906001600160f81b031916908160001a90535060049490941c93611f6d81612674565b9050611eff565b508315611fc35760405162461bcd60e51b815260206004820181905260248201527f537472696e67733a20686578206c656e67746820696e73756666696369656e7460448201526064016105de565b9392505050565b82805482825590600052602060002090810192821561200a5760005260206000209182015b8281111561200a578254825591600101919060010190611fef565b5061201692915061211a565b5090565b604051806080016040528060608152602001600081526020016000600281111561204657612046612721565b8152602001606081525090565b82805461205f9061268b565b90600052602060002090601f016020900481019282612081576000855561200a565b82601f1061209a5782800160ff1982351617855561200a565b8280016001018555821561200a579182015b8281111561200a5782358255916020019190600101906120ac565b82805482825590600052602060002090810192821561200a579160200282015b8281111561200a5781546001600160a01b0319166001600160a01b038435161782556020909201916001909101906120e7565b5b80821115612016576000815560010161211b565b80356001600160a01b0381168114611b1f57600080fd5b60008083601f84011261215857600080fd5b5081356001600160401b0381111561216f57600080fd5b6020830191508360208260051b850101111561218a57600080fd5b9250929050565b6000602082840312156121a357600080fd5b611fc38261212f565b6000602082840312156121be57600080fd5b5035919050565b600080604083850312156121d857600080fd5b823591506121e86020840161212f565b90509250929050565b60006020828403121561220357600080fd5b81356001600160e01b031981168114611fc357600080fd5b60008060008060006060868803121561223357600080fd5b853561223e81612781565b945060208601356001600160401b038082111561225a57600080fd5b61226689838a01612146565b9096509450604088013591508082111561227f57600080fd5b5061228c88828901612146565b969995985093965092949392505050565b6000602082840312156122af57600080fd5b8135611fc381612781565b600080602083850312156122cd57600080fd5b82356001600160401b03808211156122e457600080fd5b818501915085601f8301126122f857600080fd5b81358181111561230757600080fd5b86602082850101111561231957600080fd5b60209290920196919550909350505050565b6000806040838503121561233e57600080fd5b823591506020830135801515811461235557600080fd5b809150509250929050565b60008151808452612378816020860160208601612648565b601f01601f19169290920160200192915050565b76020b1b1b2b9b9a1b7b73a3937b61d1030b1b1b7bab73a1604d1b8152600083516123be816017850160208801612648565b7001034b99036b4b9b9b4b733903937b6329607d1b60179184019182015283516123ef816028840160208801612648565b01602801949350505050565b6001600160a01b03929092168252602082015260400190565b6020808252825182820181905260009190848201906040850190845b818110156124555783516001600160a01b031683529284019291840191600101612430565b50909695505050505050565b6020810161246e83612763565b91905290565b602081526000611fc36020830184612360565b6020808252602b908201527f496e697469616c697a61626c653a20636f6e7472616374206973206e6f74206960408201526a6e697469616c697a696e6760a81b606082015260800190565b6000602080835283516080828501526124ee60a0850182612360565b9050818501516040850152604085015161250781612763565b606085810191909152850151848203601f19016080860152805180835290830191600091908401905b808310156125595783516001600160a01b03168252928401926001929092019190840190612530565b509695505050505050565b60006040820184835260206040818501528185548084526060860191508660005282600020935060005b818110156125b35784546001600160a01b03168352600194850194928401920161258e565b5090979650505050505050565b848152608081016125d085612763565b8460208301526125df84612763565b8360408301526125ee83612763565b82606083015295945050505050565b60008219821115612610576126106126f5565b500190565b6000826126245761262461270b565b500490565b6000816000190483118215151615612643576126436126f5565b500290565b60005b8381101561266357818101518382015260200161264b565b8381111561096e5750506000910152565b600081612683576126836126f5565b506000190190565b600181811c9082168061269f57607f821691505b602082108114156126c057634e487b7160e01b600052602260045260246000fd5b50919050565b60006000198214156126da576126da6126f5565b5060010190565b6000826126f0576126f061270b565b500690565b634e487b7160e01b600052601160045260246000fd5b634e487b7160e01b600052601260045260246000fd5b634e487b7160e01b600052602160045260246000fd5b634e487b7160e01b600052603260045260246000fd5b634e487b7160e01b600052604160045260246000fd5b60038110610a5857634e487b7160e01b600052602160045260246000fd5b60038110610a5857600080fdfeb19546dff01e856fb3f010c267a7b1c60363cf8a4664e21cc89c26224620214ea49807205ce4d355092ef5a8a18f56e8913cf4a201fbe287825b095693c21775081094909f4170f3891f77fdfeaa2c727cbd05ad78fa8fdf56f1004bb155acf643acf52e1473f9d1ab8e2e2f74ec3e72b4d9db126805d571d8b72900fa670651a2646970667358221220e1e5029a85b90e9244a0e10bde0b7264c72fa370f10c875e545ec69b66d9cef264736f6c63430008070033",
  "linkReferences": {},
  "deployedLinkReferences": {}
}