{
  "_format": "hh-sol-artifact-1",
  "contractName": "GroupFactory",
  "sourceName": "contracts/GroupFactory.sol",
  "abi": [
    {
      "inputs": [
        {
          "internalType": "address",
          "name": "_ContractOwner",
          "type": "address"
        }
      ],
      "stateMutability": "nonpayable",
      "type": "constructor"
    },
    {
      "anonymous": false,
      "inputs": [
        {
          "indexed": false,
          "internalType": "uint256",
          "name": "cost",
          "type": "uint256"
        }
      ],
      "name": "CostChange",
      "type": "event"
    },
    {
      "anonymous": false,
      "inputs": [
        {
          "indexed": false,
          "internalType": "address",
          "name": "sender",
          "type": "address"
        },
        {
          "indexed": false,
          "internalType": "uint256",
          "name": "groupIndex",
          "type": "uint256"
        }
      ],
      "name": "GroupCreate",
      "type": "event"
    },
    {
      "anonymous": false,
      "inputs": [
        {
          "indexed": false,
          "internalType": "uint8",
          "name": "version",
          "type": "uint8"
        }
      ],
      "name": "Initialized",
      "type": "event"
    },
    {
      "anonymous": false,
      "inputs": [
        {
          "indexed": false,
          "internalType": "address",
          "name": "groupAddress",
          "type": "address"
        },
        {
          "indexed": false,
          "internalType": "uint256",
          "name": "groupIndex",
          "type": "uint256"
        },
        {
          "indexed": false,
          "internalType": "address[]",
          "name": "allocation",
          "type": "address[]"
        }
      ],
      "name": "MembershipUpdate",
      "type": "event"
    },
    {
      "anonymous": false,
      "inputs": [
        {
          "indexed": false,
          "internalType": "address",
          "name": "account",
          "type": "address"
        }
      ],
      "name": "Paused",
      "type": "event"
    },
    {
      "anonymous": false,
      "inputs": [
        {
          "indexed": true,
          "internalType": "bytes32",
          "name": "role",
          "type": "bytes32"
        },
        {
          "indexed": true,
          "internalType": "bytes32",
          "name": "previousAdminRole",
          "type": "bytes32"
        },
        {
          "indexed": true,
          "internalType": "bytes32",
          "name": "newAdminRole",
          "type": "bytes32"
        }
      ],
      "name": "RoleAdminChanged",
      "type": "event"
    },
    {
      "anonymous": false,
      "inputs": [
        {
          "indexed": true,
          "internalType": "bytes32",
          "name": "role",
          "type": "bytes32"
        },
        {
          "indexed": true,
          "internalType": "address",
          "name": "account",
          "type": "address"
        },
        {
          "indexed": true,
          "internalType": "address",
          "name": "sender",
          "type": "address"
        }
      ],
      "name": "RoleGranted",
      "type": "event"
    },
    {
      "anonymous": false,
      "inputs": [
        {
          "indexed": true,
          "internalType": "bytes32",
          "name": "role",
          "type": "bytes32"
        },
        {
          "indexed": true,
          "internalType": "address",
          "name": "account",
          "type": "address"
        },
        {
          "indexed": true,
          "internalType": "address",
          "name": "sender",
          "type": "address"
        }
      ],
      "name": "RoleRevoked",
      "type": "event"
    },
    {
      "anonymous": false,
      "inputs": [
        {
          "indexed": false,
          "internalType": "address",
          "name": "account",
          "type": "address"
        }
      ],
      "name": "Unpaused",
      "type": "event"
    },
    {
      "inputs": [],
      "name": "ADMIN_ROLE",
      "outputs": [
        {
          "internalType": "bytes32",
          "name": "",
          "type": "bytes32"
        }
      ],
      "stateMutability": "view",
      "type": "function"
    },
    {
      "inputs": [],
      "name": "DEFAULT_ADMIN_ROLE",
      "outputs": [
        {
          "internalType": "bytes32",
          "name": "",
          "type": "bytes32"
        }
      ],
      "stateMutability": "view",
      "type": "function"
    },
    {
      "inputs": [],
      "name": "cost",
      "outputs": [
        {
          "internalType": "uint256",
          "name": "",
          "type": "uint256"
        }
      ],
      "stateMutability": "view",
      "type": "function"
    },
    {
      "inputs": [
        {
          "internalType": "string",
          "name": "_name",
          "type": "string"
        }
      ],
      "name": "createGroupContract",
      "outputs": [],
      "stateMutability": "payable",
      "type": "function"
    },
    {
      "inputs": [
        {
          "internalType": "uint256",
          "name": "groupId",
          "type": "uint256"
        }
      ],
      "name": "getGroupContract",
      "outputs": [
        {
          "internalType": "address",
          "name": "",
          "type": "address"
        }
      ],
      "stateMutability": "view",
      "type": "function"
    },
    {
      "inputs": [],
      "name": "getGroupContractCount",
      "outputs": [
        {
          "internalType": "uint256",
          "name": "",
          "type": "uint256"
        }
      ],
      "stateMutability": "view",
      "type": "function"
    },
    {
      "inputs": [
        {
          "internalType": "bytes32",
          "name": "role",
          "type": "bytes32"
        }
      ],
      "name": "getRoleAdmin",
      "outputs": [
        {
          "internalType": "bytes32",
          "name": "",
          "type": "bytes32"
        }
      ],
      "stateMutability": "view",
      "type": "function"
    },
    {
      "inputs": [
        {
          "internalType": "bytes32",
          "name": "role",
          "type": "bytes32"
        },
        {
          "internalType": "address",
          "name": "account",
          "type": "address"
        }
      ],
      "name": "grantRole",
      "outputs": [],
      "stateMutability": "nonpayable",
      "type": "function"
    },
    {
      "inputs": [
        {
          "internalType": "bytes32",
          "name": "role",
          "type": "bytes32"
        },
        {
          "internalType": "address",
          "name": "account",
          "type": "address"
        }
      ],
      "name": "hasRole",
      "outputs": [
        {
          "internalType": "bool",
          "name": "",
          "type": "bool"
        }
      ],
      "stateMutability": "view",
      "type": "function"
    },
    {
      "inputs": [
        {
          "internalType": "address",
          "name": "_ContractOwner",
          "type": "address"
        }
      ],
      "name": "initialize",
      "outputs": [],
      "stateMutability": "nonpayable",
      "type": "function"
    },
    {
      "inputs": [],
      "name": "paused",
      "outputs": [
        {
          "internalType": "bool",
          "name": "",
          "type": "bool"
        }
      ],
      "stateMutability": "view",
      "type": "function"
    },
    {
      "inputs": [
        {
          "internalType": "bytes32",
          "name": "role",
          "type": "bytes32"
        },
        {
          "internalType": "address",
          "name": "account",
          "type": "address"
        }
      ],
      "name": "renounceRole",
      "outputs": [],
      "stateMutability": "nonpayable",
      "type": "function"
    },
    {
      "inputs": [
        {
          "internalType": "bytes32",
          "name": "role",
          "type": "bytes32"
        },
        {
          "internalType": "address",
          "name": "account",
          "type": "address"
        }
      ],
      "name": "revokeRole",
      "outputs": [],
      "stateMutability": "nonpayable",
      "type": "function"
    },
    {
      "inputs": [
        {
          "internalType": "uint256",
          "name": "tempCost",
          "type": "uint256"
        }
      ],
      "name": "setCost",
      "outputs": [],
      "stateMutability": "nonpayable",
      "type": "function"
    },
    {
      "inputs": [
        {
          "internalType": "bytes4",
          "name": "interfaceId",
          "type": "bytes4"
        }
      ],
      "name": "supportsInterface",
      "outputs": [
        {
          "internalType": "bool",
          "name": "",
          "type": "bool"
        }
      ],
      "stateMutability": "view",
      "type": "function"
    },
    {
      "inputs": [
        {
          "internalType": "uint256",
          "name": "groupId",
          "type": "uint256"
        },
        {
          "internalType": "address[]",
          "name": "memberList",
          "type": "address[]"
        }
      ],
      "name": "updateGroupMembership",
      "outputs": [],
      "stateMutability": "nonpayable",
      "type": "function"
    },
    {
      "inputs": [],
      "name": "withdrawBalance",
      "outputs": [],
      "stateMutability": "nonpayable",
      "type": "function"
    }
  ],
  "bytecode": "0x60806040523480156200001157600080fd5b506040516200431838038062004318833981016040819052620000349162000361565b600054610100900460ff1615808015620000555750600054600160ff909116105b8062000085575062000072306200021760201b6200093a1760201c565b15801562000085575060005460ff166001145b620000ee5760405162461bcd60e51b815260206004820152602e60248201527f496e697469616c697a61626c653a20636f6e747261637420697320616c72656160448201526d191e481a5b9a5d1a585b1a5e995960921b60648201526084015b60405180910390fd5b6000805460ff19166001179055801562000112576000805461ff0019166101001790555b6200011c62000226565b6200012662000252565b6001600160a01b0382166200016f5760405162461bcd60e51b815260206004820152600e60248201526d1bdddb995c881c995c5d5a5c995960921b6044820152606401620000e5565b6200019b7fa49807205ce4d355092ef5a8a18f56e8913cf4a201fbe287825b095693c217758362000286565b620001a860008362000286565b60ca80546001600160a01b0319166001600160a01b038416179055600060cb5580156200020f576000805461ff0019169055604051600181527f7f26b83ff96e1f2b6a682f133852f6798a09c465da95921460cefb38474024989060200160405180910390a15b5050620003de565b6001600160a01b03163b151590565b600054610100900460ff16620002505760405162461bcd60e51b8152600401620000e59062000393565b565b600054610100900460ff166200027c5760405162461bcd60e51b8152600401620000e59062000393565b620002506200032b565b60008281526097602090815260408083206001600160a01b038516845290915290205460ff16620003275760008281526097602090815260408083206001600160a01b03851684529091529020805460ff19166001179055620002e63390565b6001600160a01b0316816001600160a01b0316837f2f8788117e7eff1d82e926ec794901d17c78024a50270940304540a733656f0d60405160405180910390a45b5050565b600054610100900460ff16620003555760405162461bcd60e51b8152600401620000e59062000393565b6033805460ff19169055565b6000602082840312156200037457600080fd5b81516001600160a01b03811681146200038c57600080fd5b9392505050565b6020808252602b908201527f496e697469616c697a61626c653a20636f6e7472616374206973206e6f74206960408201526a6e697469616c697a696e6760a81b606082015260800190565b613f2a80620003ee6000396000f3fe608060405260043610620000e05760003560e01c806301ffc9a714620000e5578063033718fc146200011f57806313faede61462000146578063248a9ca3146200015e57806327b6bbb514620001835780632f2ff15d14620001aa57806336568abe14620001cf57806344a0d68a14620001f45780635c975abb14620002195780635fd8c710146200023357806375b238fc146200024b57806391d148541462000270578063a217fddf1462000295578063c4d66de814620002ac578063c5bea3e714620002d1578063d547741f146200030f578063dda6edcc1462000334575b600080fd5b348015620000f257600080fd5b506200010a6200010436600462000e7a565b6200034b565b60405190151581526020015b60405180910390f35b3480156200012c57600080fd5b506200013762000383565b60405190815260200162000116565b3480156200015357600080fd5b506200013760cb5481565b3480156200016b57600080fd5b50620001376200017d36600462000e31565b62000394565b3480156200019057600080fd5b50620001a8620001a236600462000f60565b620003a9565b005b348015620001b757600080fd5b50620001a8620001c936600462000e4b565b6200048a565b348015620001dc57600080fd5b50620001a8620001ee36600462000e4b565b620004b1565b3480156200020157600080fd5b50620001a86200021336600462000e31565b62000533565b3480156200022657600080fd5b5060335460ff166200010a565b3480156200024057600080fd5b50620001a86200058b565b3480156200025857600080fd5b506200013760008051602062003ed583398151915281565b3480156200027d57600080fd5b506200010a6200028f36600462000e4b565b620005e2565b348015620002a257600080fd5b5062000137600081565b348015620002b957600080fd5b50620001a8620002cb36600462000e13565b6200060d565b348015620002de57600080fd5b50620002f6620002f036600462000e31565b6200075c565b6040516001600160a01b03909116815260200162000116565b3480156200031c57600080fd5b50620001a86200032e36600462000e4b565b620007ba565b620001a86200034536600462000ea6565b620007dc565b60006001600160e01b03198216637965db0b60e01b14806200037d57506301ffc9a760e01b6001600160e01b03198316145b92915050565b60006200038f60c95490565b905090565b60009081526097602052604090206001015490565b600083815260cc60205260409020546001600160a01b03163314620004295760405162461bcd60e51b815260206004820152602b60248201527f4f6e6c7920612067726f757020636f6e74726163742063616e2075706461746560448201526a0206d656d626572736869760ac1b60648201526084015b60405180910390fd5b33600090815260cd602052604090206200044590838362000d11565b507fd5503eb191eabdcfa388b8db5173ece0e47529e72e67daedbcca8c207ff33484338484846040516200047d949392919062001084565b60405180910390a1505050565b620004958262000394565b620004a08162000949565b620004ac838362000958565b505050565b6001600160a01b0381163314620005235760405162461bcd60e51b815260206004820152602f60248201527f416363657373436f6e74726f6c3a2063616e206f6e6c792072656e6f756e636560448201526e103937b632b9903337b91039b2b63360891b606482015260840162000420565b6200052f8282620009e2565b5050565b60008051602062003ed58339815191526200054e8162000949565b60cb8290556040518281527f4b27c8e20f64ec8de731aecb7ead310a0ec9aac2746fcebbbee44df0902574ec906020015b60405180910390a15050565b60008051602062003ed5833981519152620005a68162000949565b60ca546040516001600160a01b039091169081904780156108fc02916000818181858888f19350505050158015620004ac573d6000803e3d6000fd5b60009182526097602090815260408084206001600160a01b0393909316845291905290205460ff1690565b600054610100900460ff16158080156200062e5750600054600160ff909116105b8062000653575062000640306200093a565b15801562000653575060005460ff166001145b620006b85760405162461bcd60e51b815260206004820152602e60248201527f496e697469616c697a61626c653a20636f6e747261637420697320616c72656160448201526d191e481a5b9a5d1a585b1a5e995960921b606482015260840162000420565b6000805460ff191660011790558015620006dc576000805461ff0019166101001790555b620006e662000a4c565b620006f062000a78565b6200070b60008051602062003ed58339815191528362000958565b6200071860008362000958565b80156200052f576000805461ff0019169055604051600181527f7f26b83ff96e1f2b6a682f133852f6798a09c465da95921460cefb3847402498906020016200057f565b600081815260cc60205260408120546001600160a01b0316806200037d5760405162461bcd60e51b815260206004820152601460248201527311dc9bdd5c08191bd95cc81b9bdd08195e1a5cdd60621b604482015260640162000420565b620007c58262000394565b620007d08162000949565b620004ac8383620009e2565b60cb54341015620008415760405162461bcd60e51b815260206004820152602860248201527f4e6f7420656e6f756768204d4154494320746f20636f6d706c657465207472616044820152673739b0b1ba34b7b760c11b606482015260840162000420565b60006200084d60c95490565b90506000828233604051620008629062000d79565b6200087093929190620010fe565b604051809103906000f0801580156200088d573d6000803e3d6000fd5b5090506200089f60c980546001019055565b600082815260cc6020908152604080832080546001600160a01b0319166001600160a01b03861690811790915560ce8352818420805460ff191660019081179091558251808501845233815291855260cd90935292206200090292909162000d87565b5060408051338152602081018490527f35778aff1c2bbf31b0668f8cb6ae357cecc1dbac97ea193bd7041cbf85634d3591016200047d565b6001600160a01b03163b151590565b62000955813362000aac565b50565b620009648282620005e2565b6200052f5760008281526097602090815260408083206001600160a01b03851684529091529020805460ff191660011790556200099e3390565b6001600160a01b0316816001600160a01b0316837f2f8788117e7eff1d82e926ec794901d17c78024a50270940304540a733656f0d60405160405180910390a45050565b620009ee8282620005e2565b156200052f5760008281526097602090815260408083206001600160a01b0385168085529252808320805460ff1916905551339285917ff6391f5c32d9c69d2a47ea670b442974b53935d1edc7fd64eb21e047a839171b9190a45050565b600054610100900460ff1662000a765760405162461bcd60e51b8152600401620004209062001133565b565b600054610100900460ff1662000aa25760405162461bcd60e51b8152600401620004209062001133565b62000a7662000b1b565b62000ab88282620005e2565b6200052f5762000ad3816001600160a01b0316601462000b51565b62000ae083602062000b51565b60405160200162000af392919062001011565b60408051601f198184030181529082905262461bcd60e51b82526200042091600401620010e9565b600054610100900460ff1662000b455760405162461bcd60e51b8152600401620004209062001133565b6033805460ff19169055565b6060600062000b6283600262001199565b62000b6f9060026200117e565b6001600160401b0381111562000b895762000b8962001234565b6040519080825280601f01601f19166020018201604052801562000bb4576020820181803683370190505b509050600360fc1b8160008151811062000bd25762000bd26200121e565b60200101906001600160f81b031916908160001a905350600f60fb1b8160018151811062000c045762000c046200121e565b60200101906001600160f81b031916908160001a905350600062000c2a84600262001199565b62000c379060016200117e565b90505b600181111562000cb9576f181899199a1a9b1b9c1cb0b131b232b360811b85600f166010811062000c6f5762000c6f6200121e565b1a60f81b82828151811062000c885762000c886200121e565b60200101906001600160f81b031916908160001a90535060049490941c9362000cb181620011ee565b905062000c3a565b50831562000d0a5760405162461bcd60e51b815260206004820181905260248201527f537472696e67733a20686578206c656e67746820696e73756666696369656e74604482015260640162000420565b9392505050565b82805482825590600052602060002090810192821562000d67579160200282015b8281111562000d675781546001600160a01b0319166001600160a01b0384351617825560209092019160019091019062000d32565b5062000d7592915062000ddf565b5090565b612c8a806200124b83390190565b82805482825590600052602060002090810192821562000d67579160200282015b8281111562000d6757825182546001600160a01b0319166001600160a01b0390911617825560209092019160019091019062000da8565b5b8082111562000d75576000815560010162000de0565b80356001600160a01b038116811462000e0e57600080fd5b919050565b60006020828403121562000e2657600080fd5b62000d0a8262000df6565b60006020828403121562000e4457600080fd5b5035919050565b6000806040838503121562000e5f57600080fd5b8235915062000e716020840162000df6565b90509250929050565b60006020828403121562000e8d57600080fd5b81356001600160e01b03198116811462000d0a57600080fd5b60006020828403121562000eb957600080fd5b81356001600160401b038082111562000ed157600080fd5b818401915084601f83011262000ee657600080fd5b81358181111562000efb5762000efb62001234565b604051601f8201601f19908116603f0116810190838211818310171562000f265762000f2662001234565b8160405282815287602084870101111562000f4057600080fd5b826020860160208301376000928101602001929092525095945050505050565b60008060006040848603121562000f7657600080fd5b8335925060208401356001600160401b038082111562000f9557600080fd5b818601915086601f83011262000faa57600080fd5b81358181111562000fba57600080fd5b8760208260051b850101111562000fd057600080fd5b6020830194508093505050509250925092565b6000815180845262000ffd816020860160208601620011bb565b601f01601f19169290920160200192915050565b76020b1b1b2b9b9a1b7b73a3937b61d1030b1b1b7bab73a1604d1b81526000835162001045816017850160208801620011bb565b7001034b99036b4b9b9b4b733903937b6329607d1b601791840191820152835162001078816028840160208801620011bb565b01602801949350505050565b6001600160a01b03858116825260208083018690526060604084018190528301849052600091859160808501845b87811015620010db5783620010c78662000df6565b1682529382019390820190600101620010b2565b509998505050505050505050565b60208152600062000d0a602083018462000fe3565b60608152600062001113606083018662000fe3565b6020830194909452506001600160a01b0391909116604090910152919050565b6020808252602b908201527f496e697469616c697a61626c653a20636f6e7472616374206973206e6f74206960408201526a6e697469616c697a696e6760a81b606082015260800190565b6000821982111562001194576200119462001208565b500190565b6000816000190483118215151615620011b657620011b662001208565b500290565b60005b83811015620011d8578181015183820152602001620011be565b83811115620011e8576000848401525b50505050565b60008162001200576200120062001208565b506000190190565b634e487b7160e01b600052601160045260246000fd5b634e487b7160e01b600052603260045260246000fd5b634e487b7160e01b600052604160045260246000fdfe6080604052620f424060cd553480156200001857600080fd5b5060405162002c8a38038062002c8a8339810160408190526200003b916200057d565b600054610100900460ff16158080156200005c5750600054600160ff909116105b806200008c575062000079306200031860201b6200144c1760201c565b1580156200008c575060005460ff166001145b620000f55760405162461bcd60e51b815260206004820152602e60248201527f496e697469616c697a61626c653a20636f6e747261637420697320616c72656160448201526d191e481a5b9a5d1a585b1a5e995960921b60648201526084015b60405180910390fd5b6000805460ff19166001179055801562000119576000805461ff0019166101001790555b6200012362000327565b6200012d6200035d565b8351620001429060c990602087019062000462565b5060ca80546001600160a01b0319166001600160a01b03841690811790915560ce805460ff60a01b1916905560cb8490556040805160208101909152908152620001919060d0906001620004f1565b5060cc8054336001600160a01b0319918216811790925560ce8054909116909117905560cd5460ca546001600160a01b03908116600090815260d2602052604090209190915582166200021c5760405162461bcd60e51b815260206004820152601260248201527118dc99585d1959109e481c995c5d5a5c995960721b6044820152606401620000ec565b6200022960008362000387565b620002557fa49807205ce4d355092ef5a8a18f56e8913cf4a201fbe287825b095693c217758362000387565b620002817fb19546dff01e856fb3f010c267a7b1c60363cf8a4664e21cc89c26224620214e8362000387565b60cb54604080516001600160a01b038516815260208101929092527f35778aff1c2bbf31b0668f8cb6ae357cecc1dbac97ea193bd7041cbf85634d35910160405180910390a180156200030e576000805461ff0019169055604051600181527f7f26b83ff96e1f2b6a682f133852f6798a09c465da95921460cefb38474024989060200160405180910390a15b5050505062000716565b6001600160a01b03163b151590565b600054610100900460ff16620003515760405162461bcd60e51b8152600401620000ec9062000678565b6200035b6200042c565b565b600054610100900460ff166200035b5760405162461bcd60e51b8152600401620000ec9062000678565b60008281526097602090815260408083206001600160a01b038516845290915290205460ff16620004285760008281526097602090815260408083206001600160a01b03851684529091529020805460ff19166001179055620003e73390565b6001600160a01b0316816001600160a01b0316837f2f8788117e7eff1d82e926ec794901d17c78024a50270940304540a733656f0d60405160405180910390a45b5050565b600054610100900460ff16620004565760405162461bcd60e51b8152600401620000ec9062000678565b6033805460ff19169055565b8280546200047090620006c3565b90600052602060002090601f016020900481019282620004945760008555620004df565b82601f10620004af57805160ff1916838001178555620004df565b82800160010185558215620004df579182015b82811115620004df578251825591602001919060010190620004c2565b50620004ed92915062000549565b5090565b828054828255906000526020600020908101928215620004df579160200282015b82811115620004df57825182546001600160a01b0319166001600160a01b0390911617825560209092019160019091019062000512565b5b80821115620004ed57600081556001016200054a565b80516001600160a01b03811681146200057857600080fd5b919050565b6000806000606084860312156200059357600080fd5b83516001600160401b0380821115620005ab57600080fd5b818601915086601f830112620005c057600080fd5b815181811115620005d557620005d562000700565b604051601f8201601f19908116603f0116810190838211818310171562000600576200060062000700565b816040528281526020935089848487010111156200061d57600080fd5b600091505b8282101562000641578482018401518183018501529083019062000622565b82821115620006535760008484830101525b80975050505080860151935050506200066f6040850162000560565b90509250925092565b6020808252602b908201527f496e697469616c697a61626c653a20636f6e7472616374206973206e6f74206960408201526a6e697469616c697a696e6760a81b606082015260800190565b600181811c90821680620006d857607f821691505b60208210811415620006fa57634e487b7160e01b600052602260045260246000fd5b50919050565b634e487b7160e01b600052604160045260246000fd5b61256480620007266000396000f3fe608060405234801561001057600080fd5b50600436106101495760003560e01c806301ffc9a71461014e57806306fdde031461017657806312065fe01461018b57806315373e3d146101aa578063248a9ca3146101bf5780632f2ff15d146101d257806336568abe146101e55780633f4ba83a146101f85780635c975abb146102005780635fd8c7101461020b57806375b238fc1461021357806377f5dd79146102285780638456cb591461023d57806384da92a71461024557806391d148541461025857806399e1fd481461026b578063a217fddf1461027e578063a230c52414610286578063a398970314610299578063a6d1aef9146102e7578063a9aa6a9b146102fa578063b81b86301461031b578063c4d66de81461033b578063d547741f1461034e578063e58378bb14610361578063f2fde38b14610376578063f89f579f14610389575b600080fd5b61016161015c366004611f5e565b610392565b60405190151581526020015b60405180910390f35b61017e6103c9565b60405161016d9190612194565b33600090815260d160205260409020545b60405190815260200161016d565b6101bd6101b8366004612098565b610457565b005b61019c6101cd366004611f19565b61083e565b6101bd6101e0366004611f32565b610853565b6101bd6101f3366004611f32565b610874565b6101bd6108f2565b60335460ff16610161565b6101bd610915565b61019c6000805160206124cf83398151915281565b6102306109cb565b60405161016d91906121f2565b6101bd610b0c565b6101bd610253366004612027565b610b2c565b610161610266366004611f32565b610ba3565b6101bd610279366004611f88565b610bce565b61019c600081565b610161610294366004611efe565b610fcc565b6102d76102a7366004611f19565b60d3602052600090815260409020805460018201546003830154600690930154919260ff91821692908216911684565b60405161016d94939291906122e0565b6101bd6102f536600461200a565b61101b565b60ce5461030e90600160a01b900460ff1681565b60405161016d9190612181565b61019c610329366004611efe565b60d26020526000908152604090205481565b6101bd610349366004611efe565b61123d565b6101bd61035c366004611f32565b611391565b61019c6000805160206124af83398151915281565b6101bd610384366004611efe565b6113ad565b61019c60cb5481565b60006001600160e01b03198216637965db0b60e01b14806103c357506301ffc9a760e01b6001600160e01b03198316145b92915050565b60c980546103d6906123ab565b80601f0160208091040260200160405190810160405280929190818152602001828054610402906123ab565b801561044f5780601f106104245761010080835404028352916020019161044f565b820191906000526020600020905b81548152906001019060200180831161043257829003601f168201915b505050505081565b61046033610fcc565b6104b15760405162461bcd60e51b815260206004820152601d60248201527f4d7573742062652061206d656d62657220746f206361737420766f746500000060448201526064015b60405180910390fd5b60cf5482106104fc5760405162461bcd60e51b8152602060048201526017602482015276141c9bdc1bdcd85b08191bd95cc81b9bdd08195e1a5cdd604a1b60448201526064016104a8565b600082815260d3602052604081209033600090815260058301602052604090205460ff16600281111561053157610531612441565b1461057d5760405162461bcd60e51b815260206004820152601c60248201527b53656e6465722068617320616c7265616479206361737420766f746560201b60448201526064016104a8565b6000600682015460ff16600281111561059857610598612441565b146105e35760405162461bcd60e51b815260206004820152601b60248201527a141c9bdc1bdcd85b081a185cc8185b1c9958591e4818db1bdcd959602a1b60448201526064016104a8565b811561060a573360009081526005820160205260409020805460ff19166001179055610627565b3360009081526005820160205260409020805460ff191660021790555b60006106328261145b565b9050600181600281111561064857610648612441565b14156107eb5760068201805460ff1916600117905560005b60048301548110156107165782600201600084600401838154811061068757610687612457565b9060005260206000200160009054906101000a90046001600160a01b03166001600160a01b03166001600160a01b031681526020019081526020016000205460d260008560040184815481106106df576106df612457565b60009182526020808320909101546001600160a01b031683528201929092526040019020558061070e816123e6565b915050610660565b506004820180546107299160d091611d37565b50600382015460ce805460ff9092169160ff60a01b1916600160a01b83600281111561075757610757612441565b021790555060ce5460cb546040516327b6bbb560e01b81526001600160a01b03909216916327b6bbb5916107909160d090600401612284565b600060405180830381600087803b1580156107aa57600080fd5b505af11580156107be573d6000803e3d6000fd5b505083546040519081526000805160206124ef8339815191529250602001905060405180910390a1610838565b60028160028111156107ff576107ff612441565b14156108385760068201805460ff1916600217905581546040519081526000805160206124ef8339815191529060200160405180910390a15b50505050565b60009081526097602052604090206001015490565b61085c8261083e565b61086581611891565b61086f838361189b565b505050565b6001600160a01b03811633146108e45760405162461bcd60e51b815260206004820152602f60248201527f416363657373436f6e74726f6c3a2063616e206f6e6c792072656e6f756e636560448201526e103937b632b9903337b91039b2b63360891b60648201526084016104a8565b6108ee8282611921565b5050565b6000805160206124af83398151915261090a81611891565b610912611988565b50565b33600081815260d16020526040902054806109865760405162461bcd60e51b815260206004820152602b60248201527f43757272656e74206d656d6265722062616c616e63652072657175697265642060448201526a746f20776974686472617760a81b60648201526084016104a8565b33600090815260d16020526040808220829055516001600160a01b0384169183156108fc02918491818181858888f1935050505015801561086f573d6000803e3d6000fd5b6109d3611d87565b6109db611d87565b60cb54602082015260c980546109f0906123ab565b80601f0160208091040260200160405190810160405280929190818152602001828054610a1c906123ab565b8015610a695780601f10610a3e57610100808354040283529160200191610a69565b820191906000526020600020905b815481529060010190602001808311610a4c57829003601f168201915b505050918352505060ce546040820190600160a01b900460ff166002811115610a9457610a94612441565b90816002811115610aa757610aa7612441565b90525060d0805460408051602080840282018101909252828152929190830182828015610afd57602002820191906000526020600020905b81546001600160a01b03168152600190910190602001808311610adf575b50505050506060820152919050565b6000805160206124af833981519152610b2481611891565b6109126119da565b60ca546001600160a01b03163314610b975760405162461bcd60e51b815260206004820152602860248201527f4f6e6c79207468652067726f7570206f776e65722063616e206368616e676520604482015267746865206e616d6560c01b60648201526084016104a8565b61086f60c98383611dc0565b60009182526097602090815260408084206001600160a01b0393909316845291905290205460ff1690565b610bd733610fcc565b610c345760405162461bcd60e51b815260206004820152602860248201527f50726f706f73616c732063616e206f6e6c792062652063726561746564206279604482015267206d656d6265727360c01b60648201526084016104a8565b828114610c945760405162461bcd60e51b815260206004820152602860248201527f4d656d626572732073686f756c6420616c69676e20776974682074686520616c6044820152673637b1b0ba34b7b760c11b60648201526084016104a8565b600060d36000610ca360cf5490565b81526020019081526020016000209050610cbc60cf5490565b8155610ccc60cf80546001019055565b60018082018054889260ff1990911690836002811115610cee57610cee612441565b0217905550610d01600482018686611e34565b5060ce54600382018054600160a01b90920460ff169160ff19166001836002811115610d2f57610d2f612441565b0217905550805460405160009160008051602061250f83398151915291610d57913391612168565b60405180910390a160005b85811015610e9d57848482818110610d7c57610d7c612457565b90506020020135836002016000898985818110610d9b57610d9b612457565b9050602002016020810190610db09190611efe565b6001600160a01b03168152602081019190915260400160002055848482818110610ddc57610ddc612457565b9050602002013582610dee919061231d565b9150600060ce54600160a01b900460ff166002811115610e1057610e10612441565b148015610e27575060ca546001600160a01b031633145b15610e8b57848482818110610e3e57610e3e612457565b9050602002013560d26000898985818110610e5b57610e5b612457565b9050602002016020810190610e709190611efe565b6001600160a01b031681526020810191909152604001600020555b80610e95816123e6565b915050610d62565b5060cd548114610eed5760405162461bcd60e51b815260206004820152601b60248201527a416c6c6f636174696f6e206d7573742061646420746f203130302560281b60448201526064016104a8565b600060ce54600160a01b900460ff166002811115610f0d57610f0d612441565b148015610f24575060ca546001600160a01b031633145b15610fc35760068201805460ff1916600117905560ce5460cb546040516327b6bbb560e01b81526001600160a01b03909216916327b6bbb591610f6c9160d090600401612284565b600060405180830381600087803b158015610f8657600080fd5b505af1158015610f9a573d6000803e3d6000fd5b505083546040519081526000805160206124ef8339815191529250602001905060405180910390a15b50505050505050565b60ca546000906001600160a01b0383811691161415610fed57506001919050565b6001600160a01b038216600090815260d260205260409020541561101357506001919050565b506000919050565b60ca546001600160a01b031633146110875760405162461bcd60e51b815260206004820152602960248201527f4f6e6c7920746865206f776e65722063616e206368616e67652074686520766f60448201526874696e67207479706560b81b60648201526084016104a8565b600060ce54600160a01b900460ff1660028111156110a7576110a7612441565b14156110da5760ce805482919060ff60a01b1916600160a01b8360028111156110d2576110d2612441565b021790555050565b600060d360006110e960cf5490565b8152602001908152602001600020905061110260cf5490565b815561111260cf80546001019055565b60018181018054600260ff19918216811790925560038401805486949193921691849081111561114457611144612441565b021790555060d0805461115b916004840191611d37565b5060005b60d05481101561120f5760d2600060d0838154811061118057611180612457565b9060005260206000200160009054906101000a90046001600160a01b03166001600160a01b03166001600160a01b031681526020019081526020016000205482600201600060d084815481106111d8576111d8612457565b60009182526020808320909101546001600160a01b0316835282019290925260400190205580611207816123e6565b91505061115f565b50805460405160008051602061250f8339815191529161123191339190612168565b60405180910390a15050565b600054610100900460ff161580801561125d5750600054600160ff909116105b8061127e575061126c3061144c565b15801561127e575060005460ff166001145b6112e15760405162461bcd60e51b815260206004820152602e60248201527f496e697469616c697a61626c653a20636f6e747261637420697320616c72656160448201526d191e481a5b9a5d1a585b1a5e995960921b60648201526084016104a8565b6000805460ff191660011790558015611304576000805461ff0019166101001790555b61130c611a17565b611314611a48565b61131f60008361189b565b6113376000805160206124cf8339815191528361189b565b61134f6000805160206124af8339815191528361189b565b80156108ee576000805461ff0019169055604051600181527f7f26b83ff96e1f2b6a682f133852f6798a09c465da95921460cefb384740249890602001611231565b61139a8261083e565b6113a381611891565b61086f8383611921565b6000805160206124cf8339815191526113c581611891565b6001600160a01b0382166114115760405162461bcd60e51b81526020600482015260136024820152721d1bc81859191c995cdcc81c995c5d5a5c9959606a1b60448201526064016104a8565b6114296000805160206124af8339815191528361189b565b5060ca80546001600160a01b0319166001600160a01b0392909216919091179055565b6001600160a01b03163b151590565b60008060ce54600160a01b900460ff16600281111561147c5761147c612441565b148015611493575060ca546001600160a01b031633145b80156114c45750600133600090815260058401602052604090205460ff1660028111156114c2576114c2612441565b145b156114d157506001919050565b600060ce54600160a01b900460ff1660028111156114f1576114f1612441565b148015611508575060ca546001600160a01b031633145b80156115395750600233600090815260058401602052604090205460ff16600281111561153757611537612441565b145b1561154657506002919050565b600260ce54600160a01b900460ff16600281111561156657611566612441565b148061158f5750600160ce54600160a01b900460ff16600281111561158d5761158d612441565b145b1561101357600080600080600160d080549050116115ae5760016115ef565b60d0546005906115c090600290612401565b10156115cd5760006115d0565b60015b60ff16600260d0805490506115e59190612335565b6115ef919061231d565b905060005b60d0548110156116f657600187600501600060d0848154811061161957611619612457565b60009182526020808320909101546001600160a01b0316835282019290925260400190205460ff16600281111561165257611652612441565b141561166a5784611662816123e6565b9550506116e4565b600287600501600060d0848154811061168557611685612457565b60009182526020808320909101546001600160a01b0316835282019290925260400190205460ff1660028111156116be576116be612441565b14156116d657836116ce816123e6565b9450506116e4565b826116e0816123e6565b9350505b806116ee816123e6565b9150506115f4565b50600260ce54600160a01b900460ff16600281111561171757611717612441565b14801561172e575060d05461172c848661231d565b105b1561173f5750600095945050505050565b600260ce54600160a01b900460ff16600281111561175f5761175f612441565b14801561176d575060d05484145b1561177e5750600195945050505050565b600260ce54600160a01b900460ff16600281111561179e5761179e612441565b1480156117ab5750600083115b156117bc5750600295945050505050565b600160ce54600160a01b900460ff1660028111156117dc576117dc612441565b1480156117e857508084105b80156117f357508083105b156118045750600095945050505050565b600160ce54600160a01b900460ff16600281111561182457611824612441565b1480156118315750808410155b156118425750600195945050505050565b600160ce54600160a01b900460ff16600281111561186257611862612441565b14801561186f5750808310155b156118805750600295945050505050565b50600095945050505050565b919050565b6109128133611a6f565b6118a58282610ba3565b6108ee5760008281526097602090815260408083206001600160a01b03851684529091529020805460ff191660011790556118dd3390565b6001600160a01b0316816001600160a01b0316837f2f8788117e7eff1d82e926ec794901d17c78024a50270940304540a733656f0d60405160405180910390a45050565b61192b8282610ba3565b156108ee5760008281526097602090815260408083206001600160a01b0385168085529252808320805460ff1916905551339285917ff6391f5c32d9c69d2a47ea670b442974b53935d1edc7fd64eb21e047a839171b9190a45050565b611990611ad3565b6033805460ff191690557f5db9ee0a495bf2e6ff9c91a7834c1ba4fdd244a5e8aa4e537bd38aeae4b073aa335b6040516001600160a01b03909116815260200160405180910390a1565b6119e2611b1c565b6033805460ff191660011790557f62e78cea01bee320cd4e420270b5ea74000d11b0c9f74754ebdbfc544b05a2586119bd3390565b600054610100900460ff16611a3e5760405162461bcd60e51b81526004016104a8906121a7565b611a46611b62565b565b600054610100900460ff16611a465760405162461bcd60e51b81526004016104a8906121a7565b611a798282610ba3565b6108ee57611a91816001600160a01b03166014611b95565b611a9c836020611b95565b604051602001611aad9291906120f9565b60408051601f198184030181529082905262461bcd60e51b82526104a891600401612194565b60335460ff16611a465760405162461bcd60e51b815260206004820152601460248201527314185d5cd8589b194e881b9bdd081c185d5cd95960621b60448201526064016104a8565b60335460ff1615611a465760405162461bcd60e51b815260206004820152601060248201526f14185d5cd8589b194e881c185d5cd95960821b60448201526064016104a8565b600054610100900460ff16611b895760405162461bcd60e51b81526004016104a8906121a7565b6033805460ff19169055565b60606000611ba4836002612349565b611baf90600261231d565b6001600160401b03811115611bc657611bc661246d565b6040519080825280601f01601f191660200182016040528015611bf0576020820181803683370190505b509050600360fc1b81600081518110611c0b57611c0b612457565b60200101906001600160f81b031916908160001a905350600f60fb1b81600181518110611c3a57611c3a612457565b60200101906001600160f81b031916908160001a9053506000611c5e846002612349565b611c6990600161231d565b90505b6001811115611ce1576f181899199a1a9b1b9c1cb0b131b232b360811b85600f1660108110611c9d57611c9d612457565b1a60f81b828281518110611cb357611cb3612457565b60200101906001600160f81b031916908160001a90535060049490941c93611cda81612394565b9050611c6c565b508315611d305760405162461bcd60e51b815260206004820181905260248201527f537472696e67733a20686578206c656e67746820696e73756666696369656e7460448201526064016104a8565b9392505050565b828054828255906000526020600020908101928215611d775760005260206000209182015b82811115611d77578254825591600101919060010190611d5c565b50611d83929150611e87565b5090565b6040518060800160405280606081526020016000815260200160006002811115611db357611db3612441565b8152602001606081525090565b828054611dcc906123ab565b90600052602060002090601f016020900481019282611dee5760008555611d77565b82601f10611e075782800160ff19823516178555611d77565b82800160010185558215611d77579182015b82811115611d77578235825591602001919060010190611e19565b828054828255906000526020600020908101928215611d77579160200282015b82811115611d775781546001600160a01b0319166001600160a01b03843516178255602090920191600190910190611e54565b5b80821115611d835760008155600101611e88565b80356001600160a01b038116811461188c57600080fd5b60008083601f840112611ec557600080fd5b5081356001600160401b03811115611edc57600080fd5b6020830191508360208260051b8501011115611ef757600080fd5b9250929050565b600060208284031215611f1057600080fd5b611d3082611e9c565b600060208284031215611f2b57600080fd5b5035919050565b60008060408385031215611f4557600080fd5b82359150611f5560208401611e9c565b90509250929050565b600060208284031215611f7057600080fd5b81356001600160e01b031981168114611d3057600080fd5b600080600080600060608688031215611fa057600080fd5b8535611fab816124a1565b945060208601356001600160401b0380821115611fc757600080fd5b611fd389838a01611eb3565b90965094506040880135915080821115611fec57600080fd5b50611ff988828901611eb3565b969995985093965092949392505050565b60006020828403121561201c57600080fd5b8135611d30816124a1565b6000806020838503121561203a57600080fd5b82356001600160401b038082111561205157600080fd5b818501915085601f83011261206557600080fd5b81358181111561207457600080fd5b86602082850101111561208657600080fd5b60209290920196919550909350505050565b600080604083850312156120ab57600080fd5b82359150602083013580151581146120c257600080fd5b809150509250929050565b600081518084526120e5816020860160208601612368565b601f01601f19169290920160200192915050565b76020b1b1b2b9b9a1b7b73a3937b61d1030b1b1b7bab73a1604d1b81526000835161212b816017850160208801612368565b7001034b99036b4b9b9b4b733903937b6329607d1b601791840191820152835161215c816028840160208801612368565b01602801949350505050565b6001600160a01b03929092168252602082015260400190565b6020810161218e83612483565b91905290565b602081526000611d3060208301846120cd565b6020808252602b908201527f496e697469616c697a61626c653a20636f6e7472616374206973206e6f74206960408201526a6e697469616c697a696e6760a81b606082015260800190565b60006020808352835160808285015261220e60a08501826120cd565b9050818501516040850152604085015161222781612483565b606085810191909152850151848203601f19016080860152805180835290830191600091908401905b808310156122795783516001600160a01b03168252928401926001929092019190840190612250565b509695505050505050565b60006040820184835260206040818501528185548084526060860191508660005282600020935060005b818110156122d35784546001600160a01b0316835260019485019492840192016122ae565b5090979650505050505050565b848152608081016122f085612483565b8460208301526122ff84612483565b83604083015261230e83612483565b82606083015295945050505050565b6000821982111561233057612330612415565b500190565b6000826123445761234461242b565b500490565b600081600019048311821515161561236357612363612415565b500290565b60005b8381101561238357818101518382015260200161236b565b838111156108385750506000910152565b6000816123a3576123a3612415565b506000190190565b600181811c908216806123bf57607f821691505b602082108114156123e057634e487b7160e01b600052602260045260246000fd5b50919050565b60006000198214156123fa576123fa612415565b5060010190565b6000826124105761241061242b565b500690565b634e487b7160e01b600052601160045260246000fd5b634e487b7160e01b600052601260045260246000fd5b634e487b7160e01b600052602160045260246000fd5b634e487b7160e01b600052603260045260246000fd5b634e487b7160e01b600052604160045260246000fd5b6003811061091257634e487b7160e01b600052602160045260246000fd5b6003811061091257600080fdfeb19546dff01e856fb3f010c267a7b1c60363cf8a4664e21cc89c26224620214ea49807205ce4d355092ef5a8a18f56e8913cf4a201fbe287825b095693c21775081094909f4170f3891f77fdfeaa2c727cbd05ad78fa8fdf56f1004bb155acf643acf52e1473f9d1ab8e2e2f74ec3e72b4d9db126805d571d8b72900fa670651a26469706673582212202396b4633073434bb4918f693aa5478bf0d2044201e3602659c14f59ec85347764736f6c63430008070033a49807205ce4d355092ef5a8a18f56e8913cf4a201fbe287825b095693c21775a2646970667358221220c9a276c52da135157962ed9c11a964de103ee58c4cc9fc0e2631b1b119615ef564736f6c63430008070033",
  "linkReferences": {},
  "deployedLinkReferences": {}
}